:100000000C9434000C9451000C9451000C94510049
:100010000C9451000C9451000C9451000C9451001C
:100020000C9451000C9451000C9451000C94EF006E
:100030000C9451000C9451000C9451000C945100FC
:100040000C9451000C9451000C9451000C945100EC
:100050000C94C5000C9451000C9451000C94510068
:100060000C9451000C94510011241FBECFEFD8E026
:10007000DEBFCDBF11E0A0E0B1E0E6EDF3E002C0ED
:1000800005900D92A430B107D9F721E0A4E0B1E0CA
:1000900001C01D92A638B207E1F70E94AB010C9493
:1000A000E9010C940000259A0895E1E8F0E08081D0
:1000B0008D608083109285001092840088EE9DEF01
:1000C0009093890080938800EFE6F0E08081826061
:1000D00080837894089517B880E680937C0087E841
:1000E00080937A00789408951092C50087E68093F3
:1000F000C40088E48093C10086E08093C2007894B5
:100100000895F8949091C00095FF03C08093C600B5
:100110000895209104014091050130E02F5F3F4F89
:100120002F77332750E02417350789F0E091040139
:10013000F0E0EA5FFE4F8083809104018F5F80933F
:1001400004018091040187FD1092040178940895C0
:100150001F93CF93DF93EC0110E0812F90E0FE011D
:1001600001900020E9F73197EC1BFD0B8E179F07DC
:1001700040F4FE01E80FF91F80810E9481001F5F9B
:10018000ECCFDF91CF911F9108951F920F920FB680
:100190000F9211248F939F93EF93FF9390910501FA
:1001A00080910401981791F0E0910501F0E0EA5F79
:1001B000FE4F80818093C600809105018F5F809300
:1001C00005018091050187FD10920501FF91EF91D6
:1001D0009F918F910F900FBE0F901F9018951F92B7
:1001E0000F920FB60F9211248F939F9395B180E2D7
:1001F000892785B980910001909101019093890030
:10020000809388009F918F910F900FBE0F901F9049
:10021000189595B180E2892785B980E492E4AFE032
:10022000B0E000000197A109B109D9F7089590E065
:100230008038910514F08FE790E0805C08958091FC
:100240007A00806480937A0080917A0086FDFCCFEA
:1002500020E030E040E051E08091790090E080388B
:10026000910514F08FE790E0805C9F4FBA01681B06
:10027000790B2617370744F484ED90E300000197CB
:10028000E9F72F5F3F4FE8CF089580917A008064AF
:1002900080937A0080917A0086FDFCCF809179006E
:1002A000803810F42D9A08952D98089580917A0041
:1002B000806480937A0080917A0086FDFCCF8091E3
:1002C00079000895CF93DF93CDB7DEB764970FB66B
:1002D000F894DEBF0FBECDBF95B180E2892785B906
:1002E00080E492E4AFE0B0E000000197A109B10919
:1002F000D9F70E9456014AE0BE016F5F7F4F90E040
:100300000E94B401CE0101960E94A80082E091E013
:100310000E94A80064960FB6F894DEBF0FBECDBF52
:10032000DF91CF91089520E4829FC0011124909322
:10033000890080938800209184003091850080910D
:100340008800909189008217930720F4109285000D
:100350001092840008950E9453000E946B000E9436
:1003600074000E946201FDCFBB274A3031F499230B
:1003700022F4BDE2909581959F4F0C94C001BB275C
:10038000FB015527AA27880F991FAA1FA41710F051
:10039000A41B83955051B9F7A05DAA3308F0A95D5D
:1003A000A193009779F7B111B1931192CB010C94FD
:1003B000D901DC01FC01672F71917723E1F73297B6
:1003C00004C07C916D9370836291AE17BF07C8F330
:0603D0000895F894FFCF30
:0403D600E8FD0A0034
:00000001FF
