:100000000C9434000C9451000C9451000C94510049
:100010000C9451000C9451000C9451000C9451001C
:100020000C9451000C9451000C9451000C941D013F
:100030000C9451000C9451000C9451000C945100FC
:100040000C9451000C9451000C9451000C945100EC
:100050000C94F3000C9451000C9451000C9451003A
:100060000C9451000C94510011241FBECFEFD8E026
:10007000DEBFCDBF11E0A0E0B1E0E0EEF3E002C0F2
:1000800005900D92AA30B107D9F721E0AAE0B1E0BE
:1000900001C01D92AC38B207E1F70E94BD010C947B
:1000A000EE010C940000EF92FF920F931F93CF93F9
:1000B000DF93FC01EB0197FF04C0882799278E1B73
:1000C0009F0B8E0120E030E04AE0E42EF12C2F5F00
:1000D0003F4FB7010E94C601805DD8018D938D010D
:1000E000CB010097A1F7F7FF05C0FE01E20FF31F58
:1000F0008DE28083DF91CF911F910F91FF90EF9060
:100100000895259A0895E1E8F0E080818D6080836C
:10011000109285001092840088EE9DEF90938900E4
:1001200080938800EFE6F0E080818260808378949D
:10013000089517B880E680937C0087E880937A0062
:10014000789408951092C50087E68093C40088E4EF
:100150008093C10086E08093C20078940895F8945B
:100160009091C00095FF03C08093C6000895209130
:100170000A0140910B0130E02F5F3F4F2F7733276B
:1001800050E02417350789F0E0910A01F0E0E45FC0
:10019000FE4F808380910A018F5F80930A018091D6
:1001A0000A0187FD10920A01789408951F93CF9356
:1001B000DF93EC0110E0812F90E0FE010190002020
:1001C000E9F73197EC1BFD0B8E179F0740F4FE01FA
:1001D000E80FF91F80810E94AF001F5FECCFDF9115
:1001E000CF911F9108951F920F920FB60F92112475
:1001F0008F939F93EF93FF9390910B0180910A014E
:10020000981791F0E0910B01F0E0E45FFE4F8081E0
:100210008093C60080910B018F5F80930B018091CA
:100220000B0187FD10920B01FF91EF919F918F9130
:100230000F900FBE0F901F9018951F920F920FB640
:100240000F9211248F939F9395B180E2892785B9EE
:100250008091000190910101909389008093880022
:100260009F918F910F900FBE0F901F90189595B191
:1002700080E2892785B980E492E4AFE0B0E0000035
:100280000197A109B109D9F782E091E00C94D60059
:1002900095B180E2892785B980E492E4AFE0B0E0CF
:1002A00000000197A109B109D9F7089590E08038BD
:1002B000910514F08FE790E0805C089595B180E29D
:1002C000892785B980917A00806480937A00809133
:1002D0007A0086FDFCCF20E030E040E051E08091E4
:1002E000790090E08038910514F08FE790E0805C11
:1002F0009F4FBA01681B790B2617370744F484ED2A
:1003000090E300000197E9F72F5F3F4FE8CF089592
:1003100080917A00806480937A0080917A0086FDD3
:10032000FCCF80917900803810F42D9A08952D9893
:10033000089580917A00806480937A0080917A0099
:1003400086FDFCCF80917900089520E4829FC00152
:10035000112490938900809388002091840030912B
:10036000850080918800909189008217930720F47E
:10037000109285001092840008950E9481000E94CE
:1003800099000E94A2000E943701FDCF97FB072E23
:1003900016F4009407D077FD09D00E94DA0107FC1B
:1003A00005D03EF4909581959F4F08957095619585
:1003B0007F4F0895AA1BBB1B51E107C0AA1FBB1F9B
:1003C000A617B70710F0A61BB70B881F991F5A95E1
:1003D000A9F780959095BC01CD010895F894FFCFC1
:0A03E000E8FD6162633132330A0068
:00000001FF
