:100000000C9434000C9451000C9451000C94510049
:100010000C9451000C9451000C9451000C9451001C
:100020000C9451000C9451000C9451000C94EF006E
:100030000C9451000C9451000C9451000C945100FC
:100040000C9451000C9451000C9451000C945100EC
:100050000C94C5000C9451000C9451000C94510068
:100060000C9451000C94510011241FBECFEFD8E026
:10007000DEBFCDBF11E0A0E0B1E0E6E6F3E002C0F4
:1000800005900D92AA30B107D9F721E0AAE0B1E0BE
:1000900001C01D92AC38B207E1F70E946C010C94CC
:1000A000B1010C940000259A0895E1E8F0E0808108
:1000B0008D608083109285001092840088EE9DEF01
:1000C0009093890080938800EFE6F0E08081826061
:1000D00080837894089517B880E680937C0087E841
:1000E00080937A00789408951092C50087E68093F3
:1000F000C40088E48093C10086E08093C2007894B5
:100100000895F8949091C00095FF03C08093C600B5
:10011000089520910A0140910B0130E02F5F3F4F7D
:100120002F77332750E02417350789F0E0910A0133
:10013000F0E0E45FFE4F808380910A018F5F80933F
:100140000A0180910A0187FD10920A0178940895AE
:100150001F93CF93DF93EC0110E0812F90E0FE011D
:1001600001900020E9F73197EC1BFD0B8E179F07DC
:1001700040F4FE01E80FF91F80810E9481001F5F9B
:10018000ECCFDF91CF911F9108951F920F920FB680
:100190000F9211248F939F93EF93FF9390910B01F4
:1001A00080910A01981791F0E0910B01F0E0E45F73
:1001B000FE4F80818093C60080910B018F5F8093FA
:1001C0000B0180910B0187FD10920B01FF91EF91C4
:1001D0009F918F910F900FBE0F901F9018951F92B7
:1001E0000F920FB60F9211248F939F9395B180E2D7
:1001F000892785B99F918F910F900FBE0F901F9007
:10020000189580E492E4AFE0B0E000000197A10906
:10021000B109D9F7089582E091E00E94A80088E032
:1002200091E00C94A80095B180E2892785B980E41B
:1002300092E4AFE0B0E000000197A109B109D9F75D
:10024000089590E08038910514F08FE790E0805C8D
:10025000089580917A00806480937A0080917A007A
:1002600086FDFCCF809179000895CF93DF93CDB7C1
:10027000DEB764970FB6F894DEBF0FBECDBF95B161
:1002800080E2892785B980E492E4AFE0B0E0000025
:100290000197A109B109D9F70E9429014AE0BE01DD
:1002A0006F5F7F4F90E00E947C01CE0101960E941B
:1002B000A80088E091E00E94A80064960FB6F89428
:1002C000DEBF0FBECDBFDF91CF910895819522E3B0
:1002D000829FC001112408950E9453000E946B0068
:1002E0000E9474000E9455000E9401010E94290191
:1002F0008BE70E940B01F8CFBB274A3031F49923DA
:1003000022F4BDE2909581959F4F0C948801BB2704
:10031000FB015527AA27880F991FAA1FA41710F0C1
:10032000A41B83955051B9F7A05DAA3308F0A95DCD
:10033000A193009779F7B111B1931192CB010C946D
:10034000A101DC01FC01672F71917723E1F732975E
:1003500004C07C916D9370836291AE17BF07C8F3A0
:060360000895F894FFCFA0
:0A036600E8FD68656C6C6F000A008A
:00000001FF
