:100000000C9434000C9451000C9451000C94510049
:100010000C9451000C9451000C9451000C9451001C
:100020000C9451000C9451000C9451000C94190143
:100030000C9451000C9451000C9451000C945100FC
:100040000C9451000C9451000C9451000C945100EC
:100050000C94EF000C9451000C9451000C9451003E
:100060000C9451000C94510011241FBECFEFD8E026
:10007000DEBFCDBF11E0A0E0B1E0E0E9F3E002C0F7
:1000800005900D92A230B107D9F721E0A2E0B1E0CE
:1000900001C01D92A438B207E1F70E9495010C94AB
:1000A000C6010C940000CF92DF92EF92FF920F9363
:1000B0001F93CF93DF93FC01EB0197FF04C08827C8
:1000C00099278E1B9F0B7E0100E010E02AE0C22ED4
:1000D000D12C98012F5F3F4FB6010E949E01805D99
:1000E000D7018D937D01CB01009711F08901F1CFEC
:1000F000F7FF07C0FE01E20FF31F8DE280832F5F41
:100100003F4FFE01E20FF31F1082DF91CF911F914D
:100110000F91FF90EF90DF90CF900895259A08956A
:10012000E1E8F0E080818D6080831092850010927C
:10013000840084ED90E39093890080938800EFE63B
:10014000F0E08081826080837894089517B880E61B
:1001500080937C0087E880937A00789408951092C9
:10016000C50087E68093C40088E48093C10086E0E0
:100170008093C2007894089590910201E92FF0E0F5
:10018000EC5FFE4F808381E0890F87FD03C0809381
:10019000020108951092020108951F93CF93DF93F7
:1001A000EC0110E0812F90E0FE0101900020E9F7C2
:1001B0003197EC1BFD0B8E179F0740F4FE01E80FF3
:1001C000F91F80810E94BC001F5FECCF8091C000AE
:1001D00085FD1092C600DF91CF911F9108951F9267
:1001E0000F920FB60F9211248F939F93EF93FF936B
:1001F000E091030180910201E81791F0F0E0EC5FDB
:10020000FE4F80818093C6008091030191E0980F9A
:1002100097FD03C09093030103C08E5F8093030199
:10022000FF91EF919F918F910F900FBE0F901F90B4
:1002300018951F920F920FB60F9211248F939F93D0
:1002400095B180E2892785B99F918F910F900FBE5C
:100250000F901F901895089595B180E2892785B970
:1002600080917A00806480937A0080917A0086FD84
:10027000FCCF80E090E040E051E020917900BA01AD
:10028000621B71098617970744F424ED30E30000E0
:1002900021503109E1F70196F0CF089580917A005D
:1002A000806480937A0080917A0086FDFCCF8091F3
:1002B0007900803810F42D9A08952D980895809132
:1002C0007A00806480937A0080917A0086FDFCCF6A
:1002D000809179000895CF93DF9300D000D0CDB7FF
:1002E000DEB795B180E2892785B98FE998E6A7E066
:1002F000B0E000000197A109B109D9F70E945F01A0
:10030000BE016F5F7F4F90E00E945300CE010196C7
:100310000E94CD0080E091E00E94CD000F900F90F0
:100320000F900F90DF91CF9108950E948E000E9450
:10033000A6000E94AF000E946B01FDCF97FB072E25
:1003400016F4009407D077FD09D00E94B20107FC93
:1003500005D03EF4909581959F4F089570956195D5
:100360007F4F0895AA1BBB1B51E107C0AA1FBB1FEB
:10037000A617B70710F0A61BB70B881F991F5A9531
:10038000A9F780959095BC01CD010895F894FFCF11
:020390000A0061
:00000001FF
